:020000020000FC
:100000000C94874D1895189518951895189518956E
:100010001895189518951895189518951895189578
:100020001895189518951895189518951895189568
:100030001895189518951895189518950C94F92FEA
:1000400018951895189518950C94024918951895B7
:100050001895189518951895189518951895189538
:100060001895189518951895189518951895189528
:1000700018951895189518950C94DC4818951895AE
:100080001895189518951895189518950D0A20002B
:100090000D0A0A205B434D2D352056657273696F3A
:1000A0006E20312E31345D000D0A20546F737320A1
:1000B0004D6F64650D0A000D0A202D3E5B44796E7C
:1000C000616D6978656C5D3A000D0A203C2D5B44DA
:1000D000796E616D6978656C5D3A000D0A203C2D82
:1000E0003E50433A00203C2D3E44796E616D697864
:1000F000656C3A000D0A2041726520796F75207396
:10010000757265203F28792F4E29000D0A205573FE
:10011000616765203A20476F205B506F736974698F
:100120006F6E20416E676C6528307830307E307895
:10013000336666295D000D0A20416C6C2044796E9F
:10014000616D6978656C27732049442077696C6C10
:100150002062652073657420746F20002E20417228
:100160006520796F7520737572653F28592F4E2968
:10017000000D0A204572726F72315B436865636BD4
:100180002044796E616D6978656C2056657273697B
:100190006F6E206973206D6F7265207468616E20C8
:1001A000335D000D0A2042284265666F7265292C76
:1001B0004E284E657874292C512851756974290090
:1001C0000D0A203438354D6F6E69746F72205B4CA8
:1001D000462C43522061726520616464656420612D
:1001E000742070617573652074696D655D0D0A001A
:1001F0000D0A204E6F20446174615B61742042726D
:100200006F61646361737420494420307846455DB2
:10021000000D0A204E6F20446174612843686563B5
:100220006B2049442C204F7065726174696E6720A1
:100230004D6F64652C20426175642072617465297C
:1002400000204C454E3A000D0A204C454420426C9B
:10025000696E6B2049443A002044796E616D69787B
:10026000656C7320466F756E642E000D0A204C4538
:100270004420426C696E6B2049443A000D20466F61
:10028000756E642120424155445F5245473A002C27
:100290002049443A000D0A20426175642052656786
:1002A000206973206368616E67656420746F200045
:1002B000425053000D0A2049443A30202D20000DB1
:1002C0000A2044656C61793A000D0A20546F7271FE
:1002D000756520456E61626C65000D0A204D6F7674
:1002E000652030203C2D3E203078336666000D0AB4
:1002F00020416E79204B657920746F20436F6E74B6
:10030000696E75652E2E2E000D0A205B45455052F4
:100310004F4D20415245415D0D0A204D4F44454C03
:100320005F4E554D4245525F4C202020202020201A
:1003300020285229205B000D0A204D4F44454C5F78
:100340004E554D4245525F4820202020202020203D
:10035000285229205B000D0A2056455253494F4E22
:100360002020202020202020202020202020202885
:100370005229205B000D0A20494420202020202003
:100380002020202020202020202020202028522F24
:1003900057295B000D0A20424155445F52415445A4
:1003A00020202020202020202020202028522F57CD
:1003B000295B000D0A2052455455524E5F44454C6E
:1003C00041595F54494D452020202028522F57295C
:1003D0005B000D0A2043575F414E474C455F4C4937
:1003E0004D49545F4C202020202028522F57295B54
:1003F000000D0A2043575F414E474C455F4C494D25
:1004000049545F48202020202028522F57295B0084
:100410000D0A204343575F414E474C455F4C494DC1
:1004200049545F4C2020202028522F57295B000D73
:100430000A204343575F414E474C455F4C494D4965
:10044000545F482020202028522F57295B000D0A96
:10045000202852455345525645442920202020202B
:1004600020202020202028522F57295B000D0A2011
:100470004C494D49545F54454D5045524154555295
:10048000452020202028522F57295B000D0A2044A8
:100490004F574E5F4C494D49545F564F4C5441475E
:1004A0004520202028522F57295B000D0A20555047
:1004B0005F4C494D49545F564F4C544147452020AD
:1004C00020202028522F57295B000D0A204D41582B
:1004D0005F544F525155455F4C2020202020202052
:1004E000202028522F57295B000D0A204D41585FCC
:1004F000544F525155455F48202020202020202075
:100500002028522F57295B000D0A2052455455527E
:100510004E5F4C4556454C20202020202020202096
:1005200028522F57295B000D0A20414C41524D5F44
:100530004C4544202020202020202020202020283E
:10054000522F57295B000D0A20414C41524D5F53F9
:10055000485554444F574E20202020202020285218
:100560002F57295B000D0A20285245534552564506
:100570004429202020202020202020202028522F05
:1005800057295B000D0A20444F574E5F43414C49A9
:1005900042524154494F4E5F4C20202028522F5741
:1005A000295B000D0A20444F574E5F43414C49429E
:1005B000524154494F4E5F4820202028522F57293E
:1005C0005B000D0A2055505F43414C494252415453
:1005D000494F4E5F4C202020202028522F57295B66
:1005E000000D0A2055505F43414C49425241544945
:1005F0004F4E5F48202020202028522F57295B0093
:100600000D0A205B52414D20415245415D0D0A20AB
:10061000544F525155455F454E41424C4520202094
:10062000202020202028522F57295B000D0A204C23
:100630004544202020202020202020202020202071
:100640002020202028522F57295B000D0A204357D5
:100650005F434F4D504C49414E43455F4D415247DA
:10066000494E2028522F57295B000D0A204343573B
:100670005F434F4D504C49414E43455F4D415247BA
:10068000494E28522F57295B000D0A2043575F43DC
:100690004F4D504C49414E43455F534C4F504520C0
:1006A0002028522F57295B000D0A204343575F43F0
:1006B0004F4D504C49414E43455F534C4F504520A0
:1006C00028522F57295B000D0A20474F414C5F509D
:1006D0004F534954494F4E5F4C2020202020202862
:1006E000522F57295B000D0A20474F414C5F504F56
:1006F000534954494F4E5F48202020202020285243
:100700002F57295B000D0A204D4F56494E475F5326
:10071000504545445F4C2020202020202028522F87
:1007200057295B000D0A204D4F56494E475F5350E5
:100730004545445F482020202020202028522F5764
:10074000295B000D0A20544F525155455F4C494DCD
:1007500049545F4C2020202020202028522F572948
:100760005B000D0A20544F525155455F4C494D498D
:10077000545F482020202020202028522F57295B1A
:10078000000D0A2050524553454E545F504F534977
:1007900054494F4E5F4C20202020285229205B00D6
:1007A0000D0A2050524553454E545F504F53495403
:1007B000494F4E5F4820202020285229205B000D01
:1007C0000A2050524553454E545F53504545445FAF
:1007D0004C20202020202020285229205B000D0AB8
:1007E0002050524553454E545F53504545445F4851
:1007F00020202020202020285229205B000D0A20C4
:1008000050524553454E545F4C4F41445F4C20205D
:10081000202020202020285229205B000D0A205073
:10082000524553454E545F4C4F41445F4820202071
:100830002020202020285229205B000D0A20505221
:100840004553454E545F564F4C5441474520202058
:1008500020202020285229205B000D0A20505245DC
:1008600053454E545F54454D5045524154555245A1
:10087000202020285229205B000D0A20524547499C
:100880005354455245445F494E53545255432E20CC
:100890002028522F57295B000D0A205245534552FC
:1008A0005645442850415553455F54494D452920EC
:1008B00028522F57295B000D0A204D4F56494E47AD
:1008C0002020202020202020202020202020202028
:1008D000285229205B000D0A204C4F434B2020203A
:1008E00020202020202020202020202020202852CE
:1008F0002F57295B000D0A2050554E43485F4C206E
:100900002020202020202020202020202028522F9E
:1009100057295B000D0A2050554E43485F48202060
:1009200020202020202020202020202028522F5747
:10093000295B000D0A0A2044554D50284429203ACD
:100940002044756D7020636F6E74726F6C207461DB
:10095000626C652E000D0A204944205B49445F4EBD
:10096000554D5D203A20536574204944206F662020
:1009700064796E616D6978656C2E000D0A204349BB
:1009800044205B49445F4E554D5D203A20436861E9
:100990006E676520436F6E74726F6C2049442E0041
:1009A0000D0A2052454144205B414444525D5B4C5A
:1009B000454E5D203A205265616420646174612E69
:1009C0002065782952656164203130203220285218
:1009D0006561642066726F6D20307831302C206C38
:1009E000656E677468203229000D0A2057524954F9
:1009F00045205B414444525D5B44415441315D2E8E
:100A00002E203A20577269746520646174612E202B
:100A100065782957726974652031342C3120285744
:100A20007269746520312061742030783134290076
:100A30000D0A205245475F5752205B414444525DA6
:100A40005B44415441315D2E2E203A205265676946
:100A50007374657220777269746520696E7374753A
:100A6000726374696F6E000D0A20414354494F4E02
:100A7000203A20416374696F6E205245475F575298
:100A800020696E737472756374696F6E000D0A204D
:100A9000476F205B504F534954494F4E5D5B535055
:100AA0004545445D3A20476F746F20746865207037
:100AB0006F736974696F6E207769746820746865F4
:100AC0002073706565642E000D0A20484558205B30
:100AD0004E554D5D5B4E554D5D2E2E2E203A2054C9
:100AE00072616E736D6974652072617720646174E0
:100AF000612E2065782948657820464620464620A4
:100B00003031203033000D0A205245534554203AED
:100B10002044796E616D6978656C205265736574E7
:100B20002E000D0A2050494E47205B4E554D5D3A30
:100B3000206578292050696E67204E554D20494424
:100B40002064796E616D6978656C2E000D0A205302
:100B50005752205B414444525D5B4C454E5D5B49BE
:100B6000445D5B444154415D2E2E2E5B49445D5BE8
:100B7000444154415D2E2E2E203A2053796E63203D
:100B800057726974652E000D0A205343414E205B55
:100B90004E554D5D203A205343414E206C696E6B9B
:100BA00065642064796E616D6978656C20696E207A
:100BB000307E4E554D20696E2063757272656E747D
:100BC000206261756420726174652E000D0A204CEC
:100BD0004544205B4E554D5D203A20426C696E6B5A
:100BE000204C4544206F66204E554D2049442E2010
:100BF0002742272C274E2720666F72204944206306
:100C000068616E67652E2027512720666F7220511C
:100C10007569742E000D0A2042415544205B4E55E3
:100C20004D5D203A205365742062617564207261C5
:100C300074652020657829204241554420323228AD
:100C40003537363030425053292C2042415544200C
:100C50003128314D42505329000D0A20534541524D
:100C60004348203A205365617263682049442061FB
:100C70006E64206261756472617465206F662061C4
:100C80006C6C206C696E6B65642064796E616D6953
:100C900078656C732E000D0A2055706461746520B0
:100CA0005B53544152545F49445D205B454E445F61
:100CB00049445D203A2044796E616D6978656C2005
:100CC0006669726D77617265207570646174652EF6
:100CD0002873797374656D2075736572206F6E6CFF
:100CE0007929000D0A0A2020202020202020436F8F
:100CF0007079726967687420524F424F544953208B
:100D0000434F2E2C4C54442E0D0A005B496E7661E5
:100D10006C6964205061676520526561643A000D1A
:100D20000A205B4572723A5278442054696D656FAF
:100D300075745D000D0A205B4572723A57726F6ED2
:100D400067204865616465725D000D0A205B45722D
:100D5000723A5478494420213D20527849445D003C
:100D60000D0A205B4572723A57726F6E67204C65B0
:100D70006E6774685D000D0A205B4572723A5772A7
:100D80006F6E6720436865636B53756D5D000D0A78
:100D900020555044415445205B53544152542049FE
:100DA000445D205B454E442049445D005D3A000DA2
:100DB0000A2049443A00205374616E6462792E001F
:100DC0002057726974696E672E2E00205375636315
:100DD0006573732E00204572726F722E000D0A200B
:100DE0004572722049443A002042616420436F6D8D
:100DF0006D616E64005B457869745D005B53544FB0
:100E0000505D000D0A204D4F54494F4E20504C412B
:100E10005920504147452020202028522F57290093
:100E20000D0A204F4E20504C4159494E47204D4FFE
:100E300054494F4E2020202028522920000D0A20FE
:100E4000545820574952454C455353205041434B29
:100E50004554202028522F5729000D0A205258208F
:100E6000574952454C455353205041434B4554201C
:100E7000202028522920000D0A204E45572050419D
:100E8000434B455420415252495645442020202886
:100E9000522920000D0A20415558204C454420205D
:100EA000202020202020202020202028522F5729B9
:100EB000000D0A20425554544F4E282D532D552DC8
:100EC000442D4C2D522920202028522920000D0A83
:100ED0002054494D4552283132356D5365632045C4
:100EE000616368292028522F5729000D0A205A498A
:100EF0004742454520494420202020202020202012
:100F0000202028522F5729000D0A20524F424F54BB
:100F1000204944202020202020202020202020287C
:100F2000522F5729000D44796E616D6978656C20E8
:100F300020302830783030295B202020205D000DC3
:100F40000A44796E616D6978656C202031283078AB
:100F50003031295B202020205D0020506167654EE4
:100F6000756D6265723A000D0A44796E616D69783B
:100F7000656C2020322830783032295B20202020F8
:100F80005D0020416464723A000D0A44796E616D1F
:100F90006978656C2020332830783033295B202035
:100FA00020205D00202852657365727665642920D3
:100FB0003A000D0A44796E616D6978656C202034C1
:100FC0002830783034295B202020205D002020202C
:100FD000506C6179436F756E743A000D0A44796EF6
:100FE000616D6978656C2020352830783035295B53
:100FF000202020205D00202852657365727665648C
:1010000029203A000D0A44796E616D6978656C207B
:1010100020362830783036295B202020205D0020C3
:1010200028526573657276656429203A000D0A447A
:10103000796E616D6978656C20203728307830379B
:10104000295B202020205D00202852657365727680
:10105000656429203A000D0A44796E616D697865EE
:101060006C2020382830783038295B202020205D03
:10107000002028526573657276656429203A000D58
:101080000A44796E616D6978656C20203928307862
:101090003039295B202020205D002020205061670E
:1010A0006520537465703A000D0A44796E616D696C
:1010B00078656C2031302830783041295B20202041
:1010C000205D0020436F6E74726F6C436F64653AED
:1010D000000D0A44796E616D6978656C20313128A4
:1010E00030783042295B202020205D002020506194
:1010F00067652053706565643A000D0A44796E6136
:101100006D6978656C2031322830783043295B2056
:101110002020205D0020202044584C205365747509
:10112000703A000D0A44796E616D6978656C203102
:10113000332830783044295B202020205D00202097
:10114000416363656C2054696D653A000D0A44790A
:101150006E616D6978656C203134283078304529AE
:101160005B202020205D004C696E6B20746F204E48
:101170006578743A000D0A44796E616D6978656C22
:101180002031352830783046295B202020205D0032
:101190004C696E6B20746F20457869743A000D0AB3
:1011A00044796E616D6978656C203136283078310C
:1011B00030295B202020205D0028526573657276FF
:1011C00065645031293A000D0A44796E616D697881
:1011D000656C2031372830783131295B2020202080
:1011E0005D002852657365727665645231293A0054
:1011F0000D0A44796E616D6978656C20313828304C
:10120000783132295B202020205D002852657365EB
:10121000727665645032293A000D0A44796E616D28
:101220006978656C2031392830783133295B20208A
:1012300020205D00285265736572766564523229FC
:101240003A000D0A44796E616D6978656C20323020
:101250002830783134295B202020205D000D0A449D
:10126000796E616D6978656C20323128307831355E
:10127000295B202020205D000D0A44796E616D6994
:1012800078656C2032322830783136295B20202076
:10129000205D000D0A44796E616D6978656C2032BD
:1012A000332830783137295B202020205D000D0A5B
:1012B00044796E616D6978656C20323428307831FC
:1012C00038295B202020205D000D0A44796E616D75
:1012D0006978656C2032352830783139295B2020D7
:1012E00020205D000D0A44796E616D6978656C207F
:1012F00032362830783161295B202020205D000DB6
:101300000A44796E616D6978656C203237283078CF
:101310003162295B202020205D000D0A44796E6136
:101320006D6978656C2032382830783163295B200C
:101330002020205D000D0A44796E616D6978656C2E
:101340002032392830783164295B202020205D004C
:101350000D0A44796E616D6978656C2033302830F0
:10136000783165295B202020205D000D0A20202097
:10137000506175736554696D652020202020202000
:101380005B2020205D000D0A2020205370656564DD
:101390002020202020202020202020000D0A202096
:1013A0002054696D6528207820372E386D53656389
:1013B00029005B2020205D202020202020202020CC
:1013C000202020202020202020202020202020201D
:1013D00020202020202020202020205B583A2D2D66
:1013E0002C593A2D2D2C413A2D2D2D2D5D000D0A15
:1013F00020202020202020202020202020202020ED
:101400002020205354503720205354503020535420
:1014100050312053545032205354503320535450A1
:101420003420535450352053545036202020204728
:101430006F20537465703A2020202020000D0A2070
:10144000202020202020202020202020202020209C
:1014500020202020202020204D53545220534C4146
:1014600056204F465354202020202020202020208A
:101470002020202020202020202020202020476FF6
:1014800020537465703A2020202020000D0A5D2032
:101490005F2020202020202020202020202020200D
:1014A000202020202020202020202020202020203C
:1014B000202020202020202020202020202020202C
:1014C000202020202020202020202020202020201C
:1014D0002020202020202020202000204172652074
:1014E000796F7520737572653F5B792F4E5D0020B3
:1014F000496E76616C696420506167650020496EB1
:1015000076616C696420506172616D65746572000A
:10151000204F66667365742055706461746564005D
:10152000204F7574206F662052616E676500204FF2
:101530004B000D0A20202020202020202D434D3A52
:101540002052503D2850617261302C4F502C506118
:1015500072613129204C4B205253205B414444524C
:101560005D2020000D0A20427265616B20617420AD
:10157000000D0A204552524F523A00494620202081
:10158000202000454C534520494600454C534520FA
:10159000202000616E642F6F7220004A554D50204C
:1015A0002020004C4F414420202000434F4D5055F7
:1015B0005445005354415254202000454E442020AD
:1015C00020200043414C4C202020005245545552CD
:1015D0004E20004E554C4C202020000D0A2048453E
:1015E000584120444953504C4159204D4F444500E7
:1015F0000D0A20444543494D414C20444953504C29
:101600004159204D4F44450003404C464D4840450C
:101610004A230102030A222121217D7D7D7D7D7DDA
:101620007D7D7D7D7D7D7D7D7D797673716E6C693F
:1016300067656361605E5C5B595857555453515000
:101640004F4E4D4C4B4A4948474645444342424120
:10165000403F3F3E3D3C3C3B3A39393837373636E0
:10166000353434333332313130302F2F2E2D2D2C71
:101670002C2B2B2A2A2929282827272626252525E9
:1016800024242323222221212020201F1F1E1E1D4F
:101690001D1D1C1C1B1B1A1A1A19191818181717AC
:1016A0001616161515141414131312121211111004
:1016B00010100F0F0E0E0E0D0D0C0C0C0B0B0A0A5A
:1016C00009090908080707070606050504040403B5
:1016D0000302020101010000000000000000000000
:1016E00000000000000000000000000000000000FA
:1016F00000000000000000000000000000000000EA
:1017000000000000000000000000000000000000D9
:1017100000000000000000000000000000010101C6
:1017200002000200010101010200010101010200A9
:101730000200010101010101020002000200020099
:101740000200020001010101010102000101020089
:10175000020000000001010101010000010101017E
:101760000100010101010101000001010000000070
:101770000000010000000101020001010000010160
:101780000101020002000101682FA901812F00233D
:10179000B9F40FE003BF00E002BF09E01DE30E94BF
:1017A000DF4D10E0003021E0120710F000E009C02A
:1017B00001BF082F00FB07B701F907BF01E001C017
:1017C00000E0862F089500E00093610002B901BB9C
:1017D00004BB07BB0ABB00E00093650000936200F6
:1017E00003B902BB05BB08BB00B50B7F00BD00B54C
:1017F0000B7F00BD00E00093610002B901BB04BB98
:1018000007BB0ABB00E0009365000093620003B9C8
:1018100002BB05BB08BBBD9AC59A909A1C9A1D9A3B
:101820001E9A1F9A04B30F6704BB02B10C6002B981
:10183000AC9AAB9AAA9AA99AA89AAE9AAD9AAC9A7F
:10184000AB9AAA9AA99AA89A1A981B9A01B3006708
:1018500001BB9798949A959A9698AC9AAB9AAA9A43
:10186000A99AA89A0895002391F400E000939000AB
:1018700019B902E00BB908E10AB920FB0EF4579A36
:1018800006E0009395000FEF0CB95E9A08950130C1
:10189000E9F400E0009398001093990002E00093AF
:1018A0009B0008E100939A0020FB2EF400919A001F
:1018B000006800939A0006E000939D000FEF0093EC
:1018C0009C0000919B00006400939B000895592F99
:1018D000482F80E090E008C02FE93FE021503040E1
:1018E000E9F700C00000019680179107A8F3842F44
:1018F000952F08959A938A9380E090E098D20A33C6
:1019000018F00753102F02C00053102F012F10E0C2
:10191000102F00E0110F110F110F110F802B912BC1
:1019200086D20A3318F00753102F02C00053102F2D
:10193000012F302F20E0822B932B79D20A3318F01D
:101940000753102F02C00053102F012F10E044E066
:101950000E94D34D802B912B6AD20A3318F0075383
:10196000102F02C00053102F012F10E0802B912B5D
:101970008C018991999108950E94754E24972A832C
:101980003B83B02FD12E7A0182E090E001E00093FA
:10199000F30CBB249699B394CC249599C394969A4E
:1019A000959825C0949801E010E091DF00E0009345
:1019B000090D0093080D949A05E010E088DF01E21C
:1019C00005D101E311E083DF08E000D10091080DAB
:1019D0001091090D011751F00091080D1091090D9A
:1019E000011721F024D20132B9F791E08A958130B4
:1019F00010F09923B9F2992309F4B1C000E00093E3
:101A0000090D0093080D4424552466247724A0E092
:101A10008824992409E6DAD008E0D8D008D20A331D
:101A2000E9F705D2088303D2098301D20A33E9F723
:101A300061DF2801FCD10A33E9F75CDF3801088156
:101A4000003319F40981063431F002E6BFD000E317
:101A5000BDD006E6BBD00FEF60160FEF700649F061
:101A6000E6D10A33E9F7E3D1093511F4A1E001C069
:101A7000A0E00EE110E02BDF00E00093090D0093E1
:101A8000080D02E5A3D008E0A1D0D1D1802F8C367B
:101A900041F4CDD10A33E9F72DDF4801AA24A394FC
:101AA00003C08F3691F7AA24EDEEFCE0408251820C
:101AB000EFEEFCE060827182E1EFFCE080829182D7
:101AC000B0FBC6F404E110E002DF04E47FD008E0DC
:101AD0007DD0ADD10A33E9F705E010E0F8DE0A81E8
:101AE0001B817BD108E072D008E070D008E06ED096
:101AF00008E06CD0B1FB4EF404E110E0E8DEDA1649
:101B000021F007E563D008E061D0B2FBCEF4AA2053
:101B1000B9F004E110E0DBDE03E458D008E056D071
:101B200086D10A33E9F705E010E0D1DE870155D10F
:101B300008E04CD008E04AD008E048D008E046D0A1
:101B400004E110E0C4DE05E441D008E03FD0949801
:101B500001E010E0BCDE949A04E610E0B8DE00E09C
:101B60000093090D0093080D0B2D00FD969A00FFC0
:101B700096980C2D00FD959A00FF959800E0009333
:101B8000F30C092F2496E0E10C94864E5E9A1B9884
:101B90001A9A18D05E9BFECF1A981B9A08958A93C2
:101BA000802F082F02950F70005D0A3308F0095F3F
:101BB0000DD08F70805D082F0A3308F0095F06D0C2
:101BC000899108955D9BFECF0CB90895A998109155
:101BD0009B00212F25FFFBCF00939C0008959A9333
:101BE0008A93802F082F44E60E94B54D902F092F2D
:101BF000005DECDF04E6909F8019082F4AE00E9408
:101C0000B54D902F092F005DE1DF0AE0909F80190C
:101C1000805D082FDBDF8991999108950E94774EAE
:101C200048015901DD24BB2052F49094A094B09453
:101C3000000B8194900AA00AB00A0DE2C7DF80E091
:101C40009AECAAE9BBE3CC241AC0DD2019F082018A
:101C5000005DBCDF82019301AC01BD010E94044E16
:101C6000801A910AA20AB30A8C019D014AE050E051
:101C700060E070E00E944E4EC801D901C39409E0B3
:101C8000C016A8F484019501AC01BD010E944E4E1E
:101C9000402E552466247724042D0529062907297A
:101CA000A1F28201005D92DFDD24D394D3CF8401C1
:101CB0009501AC01BD010E944E4E402E5524662474
:101CC0007724042D005D82DFEEE00C94884E0E94A4
:101CD0007D4E38015524A0E1B7E244240FC000E353
:101CE00075DF8C01AD010E94C34D601A710A8D0130
:101CF0004AE050E00E94DF4DD801439405E04016D1
:101D0000D0F48301AD010E94DF4DC801082F092BDB
:101D100031F0082F005D5ADF55245394E2CF55204F
:101D200021F0082F005D52DFDCCF04E04016B8F64A
:101D300000E24CDFD6CFE8E00C948E4E10916A0999
:101D4000112311F02CDF089523E010E00AD008954C
:101D500020916A09222311F040D0089524E001D097
:101D600008950E947B4E3801822E5524A0E1B7E2EF
:101D700044240FC000E32ADF8C01AD010E94C34D53
:101D8000601A710A8D014AE050E00E94DF4DD801CF
:101D9000439405E04016F0F48301AD010E94DF4D4D
:101DA000C80104E010E0242D30E0021B130B99243D
:101DB000081519050CF7082F092B31F0082F005DC5
:101DC00005DF55245394D8CF5520A1F2082F005D8C
:101DD000FDDED2CFEAE00C948C4E9A938A93C80130
:101DE0008C01012F10E0DBDE082FD9DE899199915B
:101DF00008950E94814EC801D9018C019D01022FD6
:101E0000132F330F220B330BE8DF8C01E6DFE4E006
:101E10000C94924EBA93AA93D80103C00C91D6DECB
:101E200011960C910023D1F7A991B99108950091D1
:101E3000090D1091080D0117D1F30091090D102F14
:101E400013951093090D10E00F701070F801E65F04
:101E5000F24F008108958A93802F082FC0DE08E298
:101E6000B5DE00E3B3DE08E5B1DE082F98DE09E257
:101E7000ADDE899108950E947A4EEF97EF97EF9724
:101E80002797A898992401E00093730901E0009333
:101E9000720905C004E110E01ADD08E001BD9920D7
:101EA00011F00C94131803EA15E0B4DF00916309F4
:101EB000D2DF0CEA15E0AEDF20E08E0108571F4F9D
:101EC0000E94C41F00E00883AE0148575F4F9E0187
:101ED000205F3F4F8E010E94181E802E00917009D6
:101EE000009371098820D9F20FE1801610F00EE1FD
:101EF000802E28E536E08E010E94F61D002351F663
:101F000026E536E08E010E94F61D002309F450C03C
:101F100007EB10E00E940D4C80E01CC0FE017096A3
:101F2000082F10E0000F111F000F111FE00FF11F0D
:101F3000008111812281338190E0FC01EA52F74F48
:101F4000008390E0FC01EA52F74F0081F7DE00E2E7
:101F50003DDE839590E0E82DF0E031978E179F07E6
:101F6000ECF21B981A9A80E008C090E0FC01EA525B
:101F7000F74F008127DE5E9A839590E0E82DF0E030
:101F800031978E179F078CF35E9BFECF1A981B9A92
:101F90000FEF0E94B2490093740909EC10E00E940F
:101FA0000D4C2091740902E218E00E94BF4A77CFDD
:101FB00021E536E08E010E94F61D002371F42EE427
:101FC00036E08E010E94F61D002339F421EA35E047
:101FD0008E010E94F61D002369F100916309083CFF
:101FE000B1F40CE810E00E940D4C088919892A8987
:101FF0003B8931DF0AE3EADD088919892A893B89AF
:10200000102F009163090E94A53CA2DE48CF0889E9
:1020100019892A893B890093A0070C891D892E897B
:102020003F890093A10722E012E0009163090E941A
:10203000E94A35CF2CE935E08E010E94F61D0023D8
:10204000A9F014E3009163090E945C4DC801282F98
:1020500014E1009163090E94901D892F90E0282FC0
:1020600015E1009163090E94901D19CF27E935E021
:102070008E010E94F61D002331F114E300916309E3
:102080000E945C4DD80114E1009163090E945C4DEF
:10209000C80116E1009163090E945C4D080F191FE9
:1020A000169507950A1B1B0B212F27FF04C00195CE
:1020B000006810E001C010E0202F1AE000916309D1
:1020C0000E94901DECCE23E935E08E010E94F61DA2
:1020D000002341F001E000936A090BED15E10E9435
:1020E0000D4CDDCE2FE835E08E010E94F61D002359
:1020F00041F000E000936A0900EF15E10E940D4CE9
:10210000CECE2AE835E08E010E94F61D0023A9F00C
:1021100014E3009163090E945C4DC801282F16E169
:10212000009163090E94901D892F90E0282F17E1EC
:10213000009163090E94901DB2CE26E835E08E0121
:102140000E94F61D002339F42EE735E08E010E942F
:10215000F61D0023F9F080E014C0FE017096082FF0
:1021600010E0000F111F000F111FE00FF11F008181
:1021700011812281338190E0FC01E056F84F008309
:102180008395881550F38A94282D13E80EEF0E944A
:10219000E94A85CE28E735E08E010E94F61D00232E
:1021A00071F425E735E08E010E94F61D002339F415
:1021B00023E735E08E010E94F61D0023A1F1009176
:1021C0006309083C81F40C891D892E893F89980197
:1021D000488959896A897B898A01102F009163098E
:1021E0000E94923B5CCE80E014C0FE017096082FE6
:1021F00010E0000F111F000F111FE00FF11F0081F1
:1022000011812281338190E0FC01E056F84F008378
:102210008395881550F38A94282D13E00091630963
:102220000E94E94A3CCE2CE635E08E010E94F61D64
:10223000002301F180E014C0FE017096082F10E029
:10224000000F111F000F111FE00FF11F00811181FE
:102250002281338190E0FC01E056F84F00838395A2
:10226000881550F38A94282D14E0009163090E9488
:10227000E94A15CE25E635E08E010E94F61D0023C1
:1022800039F421E635E08E010E94F61D0023F9F0B5
:1022900080E014C0FE017096082F10E0000F111F9F
:1022A000000F111FE00FF11F008111812281338186
:1022B00090E0FC01E056F84F00838395881550F3B9
:1022C0008A94282D15E00EEF0E94E94AE8CD2AE510
:1022D00035E08E010E94F61D002381F00C891D89D6
:1022E0002E893F89202F488959896A897B898A01EB
:1022F000102F009163090E94901DD1CD24E535E097
:102300008E010E94F61D002321F104EF10E00E94CF
:102310000D4C8DDD093719F0093509F0C0CD01E00C
:10232000801619F40091630904C0088919892A8963
:102330003B8920E016E00E94E94A002309F4AFCD72
:1023400001E00093630921E030E0A9010E94B14D52
:10235000A6CD2DE435E08E010E94F61D0023A1F0EC
:1023600001E0801639F420E017E0009163090E9433
:10237000E94A95CD20E017E0488959896A897B8927
:10238000042F0E94E94A8BCD2AE435E08E010E9499
:10239000F61D002339F428E435E08E010E94F61D75
:1023A0000023D9F102E0801619F003E0801681F5D0
:1023B0000EE10093A007088919892A893B890093B7
:1023C000A107088919892A893B89012F10E0009308
:1023D000A20703E08016A9F40C891D892E893F8984
:1023E0000093A3070C891D892E893F89012F10E0D6
:1023F0000093A40725E013E0009163090E94E94AD5
:102400004ECD23E013E0009163090E94E94A47CDD5
:102410000BE011E00E940D4C42CD23E435E08E012B
:102420000E94F61D002379F001E0801619F4009156
:10243000630904C0088919892A893B8920E011E0D1
:102440000E94E94A2CCD20E435E08E010E94F61D61
:10245000002349F103E00093A007088919892A891C
:102460003B890093A10706E311E00E940D4C009107
:10247000A10764DC0CE511E00E940D4CD8DC0935A5
:1024800019F0093709F00BCD22E013E00EEF0E949E
:10249000E94A0091A1070093630921E030E0A90116
:1024A0000E94B14DFCCC2AE036E08E010E94F61D60
:1024B000002339F428E036E08E010E94F61D002347
:1024C000E1F000916309083C11F400D6E8CC00E08B
:1024D0000093A0070AE30093A10722E012E0009115
:1024E00063090E94E94A002309F4D9CC00916309E9
:1024F0000E3F09F4D4CCEAD5D2CC21E036E08E01EF
:102500000E94F61D002309F4A5C103E0801651F4D2
:10251000488859886A887B880C891D892E893F895B
:10252000A02E0DC002E0801631F4488859886A88D0
:102530007B88A42C04C00EE81DE00E940D4C02E034
:10254000801621F003E0801609F0A9CC00E000938A
:1025500072090093730909B1023289F421E014E091
:102560000EEF0E94724D0AE010E0B1D901E009B906
:102570000093620920E030E0A9010E94B14D22E2FF
:1025800014E00EEF0E94724D0AE010E0A0D902E2C2
:1025900009B90093620920E030E0A9010E94B14D21
:1025A00021E014E00EEF0E94724D0AE010E08FD996
:1025B00001E009B90093620920E030E0A9010E941E
:1025C000B14D00E00E94284C05C001E711E00E94D7
:1025D0000D4C4394A41408F41EC15524F201EB5889
:1025E000F64F00810023A9F309B1013049F001E061
:1025F00009B90093620920E030E0A9010E94B14DC1
:102600000FEA1DE00E940D4C042D98DB90E0992309
:1026100099F491E080E08F31D0F7082F0E94C81D17
:10262000002341F020E011E0082F0E94E94A002336
:1026300009F490E08395EFCF06EB1DE00E940D4C6E
:1026400080E00FC0841561F090E0FC01EB58F64F7C
:102650000081002329F025E01DE2082F0E94901D33
:1026600083958F3178F300EC1DE00E940D4C2FEF25
:102670001AEF042D0E94901D2EEF1DE2042D0E94E2
:10268000901D002309F4A1CF03E0502E02E209B906
:102690000093620920E030E0A9010E94B14D04E6F8
:1026A00010E015D90DE072DA00E00E944A1D0CE43A
:1026B0006DDA00E00E944A1D1B981A9A80E090ECA7
:1026C000A0E0B0E088246624772412C0FC013A2FF1
:1026D0003BBF069000E00BBF8F5F9F4FAF4FBF4FD8
:1026E000800C002D6FDA5E9A01E0600E00E0701E33
:1026F0000FEF601607E1700648F3082D63DA5E9A63
:102700005E9BFECF1A981B9A00E00E944A1D06E5C8
:102710003DDA00E00E944A1D00E001C00395043646
:1027200038F410E0F801EE5DF74F10811D32B1F77B
:102730000395202F01C00395043638F410E0F8010A
:10274000EE5DF74F10811D32B1F7039510E001C027
:102750001395183090F4602F062F0395422F242FE5
:10276000239570E0FB01EE5DF74F308150E0FA01F8
:10277000EE5DF74F4081341759F3183031F50BEC0B
:102780001DE00E940D4C01E401DA00E00E944A1DA8
:1027900007E4FCD900E00E944A1D04E610E097D847
:1027A00001E009B90093620920E030E0A9010E942C
:1027B000B14D20E017E0042D0E94E94A0CE211E03F
:1027C00086D800E00093720904CF05ED1DE00E9459
:1027D0000D4C5A9409F063CF01E4D8D900E00E946F
:1027E0004A1D07E4D3D900E00E944A1D04E610E028
:1027F0006ED801E009B90093620920E030E0A90138
:102800000E94B14D20E017E0042D0E94E94A0CE23D
:1028100011E05DD8DECE21E014E00EEF0E94724D93
:102820000AE010E054D801E009B90093620920E001
:1028300030E0A9010E94B14D0E94D64B09B100932E
:10284000620920E030E0A9010E94B14D01E000934F
:10285000730925CB2CEF35E08E010E94F61D002375
:1028600009F440C0B091720900E00093730900932D
:10287000720980E001E0801611F4AEEF05C008890E
:1028800019892A893B89A02F0CE810E00E940D4C81
:1028900090E005C00DE29AD90DE598D993959A1765
:1028A00088F40BE593D9092F49DA0AE38FD920E0A0
:1028B00011E0092F0E94E94A002361F30FE486D951
:1028C0008395EACF0CE810E00E940D4C082FC3DA84
:1028D00008E512E00E940D4CB093720901E00093EC
:1028E0007309DDCA28EF35E08E010E94F61D002332
:1028F00009F450C001E0801619F4A091630905C0E5
:10290000088919892A893B89A02F01E0009372095F
:1029100000E00093730903EA11E00E940D4C80E08F
:1029200007E412E00E940D4C0A2F08DA0091090D0D
:102930001091080D011791F07ADA802F823411F08E
:10294000823609F4AA958E3411F08E3609F4A395D7
:102950000BE612E00E940D4C0A2FF0D921E019E19C
:102960000A2F0E94724D04E610E00E94670C20E0DE
:1029700019E10A2F0E94724D04E610E00E94670CD4
:10298000813521F0813711F08B3181F601E0009320
:10299000730985CA21EF35E08E010E94F61D0023E0
:1029A00009F48EC000E0009373090AE00FD980E0BB
:1029B00001C083958E3F08F078C089B920E011E00E
:1029C0000EEF0E94E94A0DE001D980FB1EF40BE2F4
:1029D000FDD802C00AE2FAD800917409002309F474
:1029E0005DC0A0E056C0B0E0FD01EE5DF74F008194
:1029F0000F3F09F04DC00A2F10E00F5F1F4FF80185
:102A0000EE5DF74F00810F3F09F042C00A2F10E042
:102A10000D5F1F4FF801EE5DF74F00810230C1F5E9
:102A20000A2F10E00E5F1F4FF801EE5DF74F408157
:102A300050E00A2F10E00D5F1F4FF801EE5DF74FD9
:102A4000208130E0240F351F0A2F10E00B5F1F4F4D
:102A5000F801EE5DF74F008110E0020F131F0F3FEA
:102A600020E01207A9F40CE712E00E940D4C082F99
:102A700065D90FE812E00E940D4C0A2F10E00E5F9E
:102A80001F4FF801EE5DF74F008158D90AE09ED83C
:102A9000A39500917409A01708F4A5CF0091090D22
:102AA0001091080D011709F484CF0091620909B94A
:102AB00001E0009373090DE089D800E287D8EFC9DF
:102AC0002CEE35E08E010E94F61D002391F104E00A
:102AD0000093A007088919892A893B890093A107D7
:102AE00022E013E00EEF0E94E94A05E912E00E949D
:102AF0000D4C00E814E82EE130E0488959896A89D4
:102B00007B894F5F5F4F6F4F7F4F0E94284E86D863
:102B100000EB12E00E940D4C088919892A893B8933
:102B200009B90093620920E030E0A9010E94B14D8B
:102B3000B6C924EE35E08E010E94F61D002309F48B
:102B400042C001E0801631F400E1402E5524662495
:102B5000772404C0488859886A887B8800EC11E093
:102B60000E940D4C2BC00091710910917009011742
:102B7000A1F080E090E0A0E0B0E0AA24009171090B
:102B800010E0F801E056F94F0081E1E7F9E010812B
:102B900013951083D3D800E219D88F5F9F4FAF4FA2
:102BA000BF4F84159505A605B705E8F2AA2031F4B4
:102BB0000DE00CD80AE00AD8AA24A39480E090E0A3
:102BC000A0E0B0E0EECF2FED35E08E010E94F61DC3
:102BD000002309F44AC0488859886A887B888C8910
:102BE0009D89AE89BF8904EB12E00E940D4C042D33
:102BF000A5D80FEB12E00E940D4C8C01A9D809EC6E
:102C000012E00E940D4CA0E006C021E018E10A2F5E
:102C10000E94724DA3954A16C0F70AED12E00E9479
:102C20000D4C0CC02FEF33E01EE10A2F0E947A4DAD
:102C3000A3954A16B8F78C010E94670C0091090D04
:102C40001091080D011709F02AC9A0E007C020E083
:102C500030E01EE10A2F0E947A4DA3954A16B8F77C
:102C60008C010E94670CA0E0E4CF2BED35E08E01D3
:102C7000BDD7002309F434C100E00093730900912B
:102C800063090093A00721E015E00EEF0E94E94AD6
:102C900001E0801641F520E130E0A9010E94A54D38
:102CA000802E80E090E0E82DF0E031978E179F07AE
:102CB0000CF042C0E82FF0E07196AF010E94A54DE4
:102CC00010E020E030E0FE017096482F50E0440F05
:102CD000551F440F551FE40FF51F008311832283F6
:102CE00033838395DFCF05E1801610F004E1802E59
:102CF00020E130E0082DA9010E94B14D80E015C00F
:102D0000FE017096082F10E0000F111F000F111F19
:102D1000E00FF11F0081118122813381E82FF0E063
:102D20007196AF010E94B14D839590E0E82DF0E0DF
:102D300031978E179F0724F30CE810E00E940D4C8A
:102D40000BE50E94E60D80E004C00DE50E94E60D53
:102D5000839590E0E82DF0E031978E179F07DCF423
:102D6000FE017096082F10E0000F111F000F111FB9
:102D7000E00FF11F00811181228133810E949E0E9C
:102D800090E0E82DF0E032978E179F07F4F60DE201
:102D90000E94E60DDDCF0091090D1091080D01177D
:102DA00009F099C00CE810E00E940D4C80E019C0B9
:102DB000FE017096082F10E0000F111F000F111F69
:102DC000E00FF11F0081118122813381102F0091CA
:102DD00063090E944D4D0E949E0E00E20E94E60D86
:102DE000839590E0E82DF0E031978E179F079CF6D1
:102DF000FE017096082F10E0000F111F000F111F29
:102E0000E00FF11F0081118122813381083CF9F02C
:102E100000916309043688F1009163090E3668F564
:102E200002E517E1FE017096282F30E0220F331FD4
:102E3000220F331FE20FF31F4081518162817381A2
:102E400050E0040F151FF80104910230B1F4FE01A7
:102E50007096082F10E0000F111F000F111FE00FD8
:102E6000F11F0081118122813381102F00916309AC
:102E70000E94A53C0E94A80EB0CF0AE117E1FE0116
:102E80007096282F30E0220F331F220F331FE20FDE
:102E9000F31F408151816281738150E0040F151F3F
:102EA000F8010491023009F083CFFE017096082FDB
:102EB00010E0000F111F000F111FE00FF11F008124
:102EC000118122813381102F009163090E945C4D92
:102ED0000E94A80E82CF01E0009373090C944F0F5B
:102EE00026ED35E08E0182D6002389F14888598885
:102EF0006A887B888C899D89AE89BF8900E00093B0
:102F00007309A0E04A1698F021E018E10A2F0E9408
:102F1000724DA395F7CF2FEF33E01EE10A2F0E94E9
:102F20007A4DA3954A16B8F78C010E94670CA0E071
:102F300007C020E030E01EE10A2F0E947A4DA395E1
:102F40004A16B8F78C010E94670CA0E0EBCF22ED87
:102F500035E08E014BD6002369F0088919892A894A
:102F60003B890093630921E030E0A9010E94B14D43
:102F70000C944F0F2DEC35E08E0138D6002331F440
:102F80002BEC35E08E0132D6002321F00E9423493C
:102F90000C944F0F25EC35E08E0128D6002331F438
:102FA00023EC35E08E0122D6002321F00E94564901
:102FB0000C944F0F2EEB35E08E0118D6002319F03C
:102FC0003CD00C944F0F2AEB35E08E010FD6002336
:102FD00081F002E0801640F0088919892A893B892E
:102FE0000E9460410C944F0F01E00E9460410C94DC
:102FF0004F0F23EB35E08E01F9D5002331F42FEA92
:1030000035E08E01F3D5002321F0992493940C949C
:103010004F0F0CE810E00E940D4C08EE1DE00E94DE
:103020000D4C0C944F0F00E000937309EF96EF9650
:10303000EF962796EBE00C948B4E03E319E00E9489
:103040000D4C05E519E00E940D4C0BE719E00E94BC
:103050000D4C00EA19E00E940D4C09EE19E00E94A7
:103060000D4C00E31AE00E940D4C07E61AE00E94A6
:103070000D4C0DE81AE00E940D4C08EC1AE00E947D
:103080000D4C06E01BE00E940D4C02E21BE00E948A
:103090000D4C0CE41BE00E940D4C07E81BE00E9465
:1030A0000D4C0CEC1BE00E940D4C05E11CE00E9455
:1030B0000D4C09E51CE00E940D4C06E91CE00E9445
:1030C0000D4C03EE1CE00E940D4C08950E94814EB1
:1030D00000916309083C09F0B9C088E103E01EE0F3
:1030E0000E940D4C082F0E942B0F0AE30E94E60D50
:1030F000182F009163090E94A53C0E94A80E839599
:1031000000E21EE00E940D4C082F0E942B0F0AE3E4
:103110000E94E60D182F009163090E94A53C0E94B1
:10312000A80E83950DE31EE00E940D4C082F0E940F
:103130002B0F0AE30E94E60D182F009163090E94ED
:10314000A53C0E94A80E839583950AE51EE00E9487
:103150000D4C082F0E942B0F0AE30E94E60D182F3A
:10316000009163090E94A53C0E94A80E8395839557
:1031700007E71EE00E940D4C082F0E942B0F0AE368
:103180000E94E60D182F009163090E94A53C0E9441
:10319000A80E839504E91EE00E940D4C082F0E94A2
:1031A0002B0F0AE30E94E60D182F009163090E947D
:1031B000A53C0E94A80E839501EB1EE00E940D4CD9
:1031C000082F0E942B0F0AE30E94E60D182F009192
:1031D00063090E94A53C0E94A80E83950EEC1EE098
:1031E0000E940D4C082F0E942B0F0AE30E94E60D4F
:1031F000182F009163090E94A53C0E94A80E839598
:103200000BEE1EE00E940D4C082F0E942B0F0AE3CC
:103210000E94E60D182F009163090E94A53C0E94B0
:10322000A80E8395839508E01FE00E940D4C082F9F
:103230000E942B0F0AE30E94E60D182F00916309EC
:103240000E94A53C0E94A80E839521C480E008E05E
:1032500013E00E940D4C082F0E942B0F0CEA1DE07A
:103260000E940D4CA82FB0E01596FD01EE5DF74FC2
:1032700000810E942B0F839507E313E00E940D4C01
:10328000082F0E942B0F0CEA1DE00E940D4CA82F66
:10329000B0E01596FD01EE5DF74F00810E942B0F07
:1032A000839506E513E00E940D4C082F0E942B0F1A
:1032B0000CEA1DE00E940D4CA82FB0E01596FD0110
:1032C000EE5DF74F00810E942B0F839505E713E019
:1032D0000E940D4C082F0E942B0F0CEA1DE00E944B
:1032E0000D4CA82FB0E01596FD01EE5DF74F008163
:1032F0000E942B0F839504E913E00E940D4C082FC8
:103300000E942B0F0CEA1DE00E940D4CA82FB0E08C
:103310001596FD01EE5DF74F00810E942B0F8395FE
:1033200003EB13E00E940D4C082F0E942B0F0CEAB8
:103330001DE00E940D4CA82FB0E01596FD01EE5D3A
:10334000F74F00810E942B0F839502ED13E00E943E
:103350000D4C082F0E942B0F0CEA1DE00E940D4C13
:10336000A82FB0E01596FD01EE5DF74F00810E9499
:103370002B0F839501EF13E00E940D4C082F0E9444
:103380002B0F0CEA1DE00E940D4CA82FB0E0159603
:10339000FD01EE5DF74F00810E942B0F839500E148
:1033A00014E00E940D4C082F0E942B0F0CEA1DE028
:1033B0000E940D4CA82FB0E01596FD01EE5DF74F71
:1033C00000810E942B0F83950FE214E00E940D4CA8
:1033D000082F0E942B0F0CEA1DE00E940D4CA82F15
:1033E000B0E01596FD01EE5DF74F00810E942B0FB6
:1033F00083950EE414E00E940D4C082F0E942B0FC1
:103400000CEA1DE00E940D4CA82FB0E01596FD01BE
:10341000EE5DF74F00810E942B0F83950DE614E0BF
:103420000E940D4C082F0E942B0F0CEA1DE00E94F9
:103430000D4CA82FB0E01596FD01EE5DF74F008111
:103440000E942B0F83950CE814E00E940D4C082F6E
:103450000E942B0F0CEA1DE00E940D4CA82FB0E03B
:103460001596FD01EE5DF74F00810E942B0F8395AD
:103470000BEA14E00E940D4C082F0E942B0F0CEA5F
:103480001DE00E940D4CA82FB0E01596FD01EE5DE9
:10349000F74F00810E942B0F83950AEC14E00E94E5
:1034A0000D4C082F0E942B0F0CEA1DE00E940D4CC2
:1034B000A82FB0E01596FD01EE5DF74F00810E9448
:1034C0002B0F839509EE14E00E940D4C082F0E94EB
:1034D0002B0F0CEA1DE00E940D4CA82FB0E01596B2
:1034E000FD01EE5DF74F00810E942B0F839508E0F0
:1034F00015E00E940D4C082F0E942B0F0CEA1DE0D6
:103500000E940D4CA82FB0E01596FD01EE5DF74F1F
:1035100000810E942B0F839507E215E00E940D4C5D
:10352000082F0E942B0F0CEA1DE00E940D4CA82FC3
:10353000B0E01596FD01EE5DF74F00810E942B0F64
:10354000839506E415E00E940D4C082F0E942B0F76
:103550000CEA1DE00E940D4CA82FB0E01596FD016D
:10356000EE5DF74F00810E942B0F839505E615E075
:103570000E940D4C082F0E942B0F0CEA1DE00E94A8
:103580000D4CA82FB0E01596FD01EE5DF74F0081C0
:103590000E942B0F839504E815E00E940D4C082F24
:1035A0000E942B0F0CEA1DE00E940D4CA82FB0E0EA
:1035B0001596FD01EE5DF74F00810E942B0F83955C
:1035C00003EA15E00E940D4C082F0E942B0F0CEA15
:1035D0001DE00E940D4CA82FB0E01596FD01EE5D98
:1035E000F74F00810E942B0F839502EC15E00E949B
:1035F0000D4C082F0E942B0F0CEA1DE00E940D4C71
:10360000A82FB0E01596FD01EE5DF74F00810E94F6
:103610002B0F839501EE15E00E940D4C082F0E94A0
:103620002B0F0CEA1DE00E940D4CA82FB0E0159660
:10363000FD01EE5DF74F00810E942B0F83950EEE8A
:1036400012E00E940D4C0E94170F00E016E00E944D
:103650000D4C082F0E942B0F0CEA1DE00E940D4C10
:10366000A82FB0E01596FD01EE5DF74F00810E9496
:103670002B0F83950CE216E00E940D4C082F0E9440
:103680002B0F0CEA1DE00E940D4CA82FB0E0159600
:10369000FD01EE5DF74F00810E942B0F83950BE437
:1036A00016E00E940D4C082F0E942B0F0CEA1DE023
:1036B0000E940D4CA82FB0E01596FD01EE5DF74F6E
:1036C00000810E942B0F83950AE616E00E940D4CA4
:1036D000082F0E942B0F0CEA1DE00E940D4CA82F12
:1036E000B0E01596FD01EE5DF74F00810E942B0FB3
:1036F000839509E816E00E940D4C082F0E942B0FBD
:103700000CEA1DE00E940D4CA82FB0E01596FD01BB
:10371000EE5DF74F00810E942B0F839508EA16E0BB
:103720000E940D4C082F0E942B0F0CEA1DE00E94F6
:103730000D4CA82FB0E01596FD01EE5DF74F00810E
:103740000E942B0F839507EC16E00E940D4C082F6A
:103750000E942B0F0CEA1DE00E940D4CA82FB0E038
:103760001596FD01EE5DF74F00810E942B0F8395AA
:1037700006EE16E00E940D4C082F0E942B0F0CEA5B
:103780001DE00E940D4CA82FB0E01596FD01EE5DE6
:10379000F74F00810E942B0F839505E017E00E94F0
:1037A0000D4C082F0E942B0F0CEA1DE00E940D4CBF
:1037B000A82FB0E01596FD01EE5DF74F00810E9445
:1037C0002B0F839504E217E00E940D4C082F0E94F6
:1037D0002B0F0CEA1DE00E940D4CA82FB0E01596AF
:1037E000FD01EE5DF74F00810E942B0F839503E4EE
:1037F00017E00E940D4C082F0E942B0F0CEA1DE0D1
:103800000E940D4CA82FB0E01596FD01EE5DF74F1C
:1038100000810E942B0F839502E617E00E940D4C59
:10382000082F0E942B0F0CEA1DE00E940D4CA82FC0
:10383000B0E01596FD01EE5DF74F00810E942B0F61
:10384000839501E817E00E940D4C082F0E942B0F72
:103850000CEA1DE00E940D4CA82FB0E01596FD016A
:10386000EE5DF74F00810E942B0F839500EA17E071
:103870000E940D4C082F0E942B0F0CEA1DE00E94A5
:103880000D4CA82FB0E01596FD01EE5DF74F0081BD
:103890000E942B0F83950FEB17E00E940D4C082F11
:1038A0000E942B0F0CEA1DE00E940D4CA82FB0E0E7
:1038B0001596FD01EE5DF74F00810E942B0F839559
:1038C0000EED17E00E940D4C082F0E942B0F0CEA02
:1038D0001DE00E940D4CA82FB0E01596FD01EE5D95
:1038E000F74F00810E942B0F83950DEF17E00E9488
:1038F0000D4C082F0E942B0F0CEA1DE00E940D4C6E
:10390000A82FB0E01596FD01EE5DF74F00810E94F3
:103910002B0F83950CE118E00E940D4C082F0E949C
:103920002B0F0CEA1DE00E940D4CA82FB0E015965D
:10393000FD01EE5DF74F00810E942B0F83950BE395
:1039400018E00E940D4C082F0E942B0F0CEA1DE07E
:103950000E940D4CA82FB0E01596FD01EE5DF74FCB
:1039600000810E942B0F83950AE518E00E940D4C00
:10397000082F0E942B0F0CEA1DE00E940D4CA82F6F
:10398000B0E01596FD01EE5DF74F00810E942B0F10
:10399000839509E718E00E940D4C082F0E942B0F19
:1039A0000CEA1DE00E940D4CA82FB0E01596FD0119
:1039B000EE5DF74F00810E942B0F839508E918E018
:1039C0000E940D4C082F0E942B0F0CEA1DE00E9454
:1039D0000D4CA82FB0E01596FD01EE5DF74F00816C
:1039E0000E942B0F839507EB18E00E940D4C082FC7
:1039F0000E942B0F0CEA1DE00E940D4CA82FB0E096
:103A00001596FD01EE5DF74F00810E942B0F839507
:103A100006ED18E00E940D4C082F0E942B0F0CEAB7
:103A20001DE00E940D4CA82FB0E01596FD01EE5D43
:103A3000F74F00810E942B0F839505EF18E00E943D
:103A40000D4C082F0E942B0F0CEA1DE00E940D4C1C
:103A5000A82FB0E01596FD01EE5DF74F00810E94A2
:103A60002B0F839504E119E00E940D4C082F0E9452
:103A70002B0F0CEA1DE00E940D4CA82FB0E015960C
:103A8000FD01EE5DF74F00810E942B0F8395E4E06E
:103A90000C94924E9A938A93902F80E00091710932
:103AA000109170090117D1F340E050E060E070E040
:103AB00000917109109170090117A1F48A019B010D
:103AC000A801B9014F5F5F4F6F4F7F4F013EE3E9A0
:103AD0001E07E4E02E07E0E03E0750F3082F89912F
:103AE000999108950091710910E0F801E056F94F9D
:103AF0000081E1E7F9E0108113951083282F30E071
:103B0000F901EE5DF74F0083992341F0082F10E093
:103B1000F801EE5DF74F00810E94E60D8395C4CF5A
:103B20000E94814E902FA12FB22FA093A007B09397
:103B3000A10700EF0093A20705E50093A3070FE09C
:103B40000093A4070AEA0093A50726E01DE0092FC9
:103B50000E946E4A802F00917309002349F00CE8FF
:103B600010E00E940D4C282F06ED18E00E94BF4A7D
:103B700005E010E00E94670C1A2F092F0E944D4D9E
:103B80000B1711F401E001C000E0E4E00C94924E48
:103B90000F3130F410E0F801EB58F64F0081089532
:103BA000043650F00E3640F410E004561040F80190
:103BB000EB56F64F0081089500E00895A80100E05B
:103BC00001C00395083C88F410E0F901E00FF11FF3
:103BD000608110E0FA01E00FF11F608310E0F9014D
:103BE000E00FF11F1081112361F70895A80100E093
:103BF00010E0FA01E00FF11F608110E0F901E00F21
:103C0000F11F1081611791F4039510E0FA01E00FA4
:103C1000F11F1081112339F410E0F901E00FF11FB9
:103C20001081112321F0093C18F3089500E0089554
:103C30000E947E4ED901CA01442401C043945524F8
:103C4000FC01E40DF51D20812032C1F32CE3421666
:103C500008F041C05524FC01E40DF51D208122230C
:103C6000D1F120E021C05524FC01E40DF51D308187
:103C7000313670F05524FC01E40DF51D30813B37E1
:103C800038F45524FC01E40DF51D30813F75308377
:103C90005524FC01E40DF51D408130E0F801E20FF0
:103CA000F31F4083239543945524FC01E40DF51D37
:103CB0003081303350F05524FC01E40DF51D308186
:103CC0003B3718F430E1431670F240E030E0F80181
:103CD000E20FF31F4083E02FF12F0081002311F446
:103CE00000E0A6C066249EC043945524FC01E40D68
:103CF000F51D00810032C1F35524FC01E40DF51DD2
:103D00000081002319F46394062D92C000E010E0B6
:103D100020E030E0462D50E0440F551F440F551F62
:103D2000FD01E40FF51F008311832283338342C01A
:103D3000062D10E0000F111F000F111FFD01E00FF5
:103D4000F11F00811181228133814AE050E060E05F
:103D500070E00E94044E462D50E0440F551F440F62
:103D6000551FFD01E40FF51F008311832283338368
:103D70005524FC01E40DF51D008110E000531040B6
:103D8000212F220F220B322F462D50E0440F551FBA
:103D9000440F551FFD01E40FF51F408151816281E1
:103DA0007381400F511F621F731F408351836283D1
:103DB000738343940CE34016A0F55524FC01E40DF5
:103DC000F51D0081002321F402E0600E062D30C0B5
:103DD0005524FC01E40DF51D00810B33E1F0552461
:103DE000FC01E40DF51D00810A33A9F05524FC0106
:103DF000E40DF51D00810C3271F05524FC01E40D39
:103E0000F51D00810E3239F05524FC01E40DF51D3D
:103E10000081003281F400E25524FC01E40DF51D1F
:103E2000008363940EE1601608F45FCF6394062D5F
:103E3000E7E00C948F4E00916A09002309F478CFD3
:103E40005524FC01E40DF51D0081003308F446C043
:103E50005524FC01E40DF51D00810A33F8F5062D0B
:103E600010E0000F111F000F111FFD01E00FF11FE7
:103E7000008111812281338144E00E94204E462D31
:103E800050E0440F551F440F551FFD01E40FF51F6F
:103E900000831183228333835524FC01E40DF51D37
:103EA000008110E000531040212F220F220B322FEF
:103EB000462D50E0440F551F440F551FFD01E40FE0
:103EC000F51F4081518162817381400F511F621F34
:103ED000731F40835183628373836BCF5524FC012E
:103EE000E40DF51D0081013408F463CF5524FC0175
:103EF000E40DF51D00810B3708F05BCF5524FC0164
:103F0000E40DF51D00810F750083062D10E0000FF4
:103F1000111F000F111FFD01E00FF11F0081118122
:103F20002281338144E00E94204E462D50E0440F10
:103F3000551F440F551FFD01E40FF51F008311832A
:103F4000228333835524FC01E40DF51D008110E02C
:103F500007531040212F220F220B322F462D50E005
:103F6000440F551F440F551FFD01E40FF51F4081FD
:103F7000518162817381400F511F621F731F408303
:103F800051836283738315CF0E94814EC801A22F93
:103F9000B1E016C008E00E94E60D00E20E94E60DC6
:103FA00008E00E94E60D0A2FA02FAA95002391F7A2
:103FB00029EE3DE08C0102DEA02F8C010E940A0F49
:103FC000BB23A9F10E94170F102F1050C9F31A95A7
:103FD00051F3175099F0125029F0135019F01E5058
:103FE00079F319C000E0B0E0FC01EA0FFB1F008389
:103FF0009C0109EE1DE0E2DD01E01AC0A13000F3F2
:10400000AA9508E00E94E60D00E20E94E60D08E095
:104010000E94E60DD5CFAC3398F62A2F30E0FC0194
:10402000E20FF31F00830E94E60DA395C9CF00E0C5
:10403000E4E00C94924E0E94814E902F812F983094
:1040400050F5883040F5092F10E00F5F1F4F40E416
:1040500050E00E94C34DD801082F10E00F5F1F4FA2
:1040600040E450E00E94C34D20E011C0422F50E0D8
:10407000400F511FFA01E052F64F3081422F50E0BD
:104080004A0F5B1FFA01E052F64F3083239520342C
:1040900068F3092F03D0E4E00C94924E9A938A932C
:1040A000902F973011F490E001C0939580E007C005
:1040B000182F092F50D2182F092F2BD183958F310C
:1040C000B8F31FE1092F47D21FE1092FD3D0F80120
:1040D000E052F64F00810E949E0E10E2092F3BD263
:1040E00010E2092FC7D0F801E052F64F00810E947C
:1040F0009E0E899199910895005049F00A9561F0BA
:104100000A9579F00A9591F00A95A9F008950BEDBA
:1041100014E10E940D4C08950FEE14E10E940D4C25
:1041200008950DEF14E10E940D4C089500E115E192
:104130000E940D4C089500E215E10E940D4C089577
:104140009A938A93802F912FE7E1F6E11491EEE0A4
:10415000F6E104910E94C12F22E0082F10E00E9496
:10416000B10EE8E1F6E11491EFE0F6E104910E946E
:10417000C12F22E0092F10E00E94B10EE9E1F6E123
:104180001491E0E1F6E104910E94C12F192F082F4C
:1041900071D00E94A80E8991999108958A93E1E1C6
:1041A000F6E11491E8E0F6E104910E94C12F80E06D
:1041B00004C000E20E94E60D83958634D0F3E1E16D
:1041C000F6E11491E8E0F6E104910E94C12F899193
:1041D00008959A938A939091F40980E00CC0182F67
:1041E0000091250E0395B7D108E00E94E60D00E28C
:1041F0000E94E60D83958F3190F380E00BC0182F5D
:10420000092F0395A8D108E00E94E60D0CE70E9453
:10421000E60D83958F3198F39093250EE5E1F6E155
:104220001491ECE0F6E104910E94C12F092F0E9445
:104230009E0E899199910895093031F4133020F040
:10424000143110F401E00895083021F41F3110F406
:1042500001E00895083030F4103211F01F3111F4EC
:1042600001E00895083020F4103210F402E00895BF
:1042700000E00895682F202F812F222371F48F31C1
:1042800038F4082F10E0000F111F00501E4F39C0E6
:10429000082F10E0015E1D4F34C08F3149F4022F0A
:1042A00010E040E450E00E94C34D025C1F4F29C063
:1042B000803249F4022F10E040E450E00E94C34DE8
:1042C000015C1F4F1EC0283029F4082F10E0005E4B
:1042D0001F4F17C0293029F4082F10E0055F1F4F2A
:1042E00010C0022F10E00150104040E450E00E9446
:1042F000C34D980102E0809F8001020F131F005CF4
:104300001F4F003422E0120710F000E010E0862F6B
:1043100008959A938A93902F812F8F3108F042C08D
:10432000182F092FA7DFF801E052F64F20813181C5
:10433000203004E0300748F0182F092F9BDFF801E8
:10434000E052F64F018107FF0BC0182F092F92DFB3
:10435000F801E052F64F008111810E94A80E22C0A0
:10436000182F092F87DFF801E052F64F018105FF72
:104370000DC00FE30E94E60D0FE30E94E60D0FE370
:104380000E94E60D0FE30E94E60D0CC00DE20E94B4
:10439000E60D0DE20E94E60D0DE20E94E60D0DE233
:1043A0000E94E60D8991999108959A938A930091BC
:1043B000E50C002351F000E09FDE0E94170F093545
:1043C00021F0093711F000E085C0E3EEFCE0008148
:1043D000118120E030E040E052E060E070E00E94B7
:1043E000044EA801B901405050426F4F7F4F90E0FA
:1043F00000E010E018C0080122243324040E151E2A
:10440000261E371EF001322D3BBF069020E02BBF49
:10441000F801E052F64F0082F801E052F64F208199
:10442000920F0F5F1F4F003022E0120720F380E051
:104430000DC020E030E402E0809F800100501E4F5C
:10444000F801E052F64F2083318383958F3180F558
:10445000082F10E0F801EB58F64F0081002349F3D4
:1044600018E1082F0E944D4D013081F41EE1082F04
:104470000E94952F22E0829F20E0020E22E0121E71
:10448000F001E052F64F00831183DFCF14E2082FD2
:104490000E94952F0060106222E0829F20E0020EB1
:1044A00022E0121EF001E052F64F00831183CDCFBF
:1044B0009F3F21F40091F409083008F00ED000E08D
:1044C0000093E50C0091F709053018F000E0009327
:1044D000F70901E08991999108953B2F2A2FE0E097
:1044E000F0E006C000E0DF01A052B64F0C93319619
:1044F000E03200E0F007B0F3E0E2F0E006C005E5EE
:10450000DF01A052B64F0C933196E03400E0F00783
:10451000B0F3E0E4F0E009C000E010E4DF01A052F5
:10452000B64F0D931C9311973296E03002E0F007DE
:1045300098F300E00093F40901E00093EF0900E232
:104540000093F60900E20093F80900E00093ED09FA
:10455000A22FB32F08959A938A936297602F212FE9
:10456000CE010896EAEAFDE930E08C014AE050E02D
:104570000E94644ECE01E4EBFDE930E08C0148E09E
:1045800050E00E94644E203211F02F3151F42395F7
:10459000122FFE0170E0E60FF71F00810E94C12F6D
:1045A00010C02F3158F42395122FFE01389670E079
:1045B000E60FF71F00810E94C12F03C001E20E9495
:1045C000E60D62968991999108958A93802F03C090
:1045D00000E20E94E60D082F802F8A950023C1F784
:1045E000899108950E94824E80E005C00CE810E099
:1045F0000E940D4C83958C33C8F311E001E00E94BA
:10460000C12F05E21FE00E940D4C0FE31FE00E9446
:104610000D4C07E2DADF0AE51FE00E940D4C07E6C9
:104620001FE00E940D4C07E2D0DF02E81FE00E946D
:104630000D4C09E81FE00E940D4C07E2C6DF04EABA
:104640001FE00E940D4C02EB1FE00E940D4C07E2A0
:10465000BCDF0DEC1FE00E940D4C0BED1FE00E9433
:104660000D4C07E2B2DF06EF1FE00E940D4C04E0A4
:1046700010E10E940D4C07E2A8DF0FE110E10E945B
:104680000D4C0DE210E10E940D4C07E29EDF08E4A4
:1046900010E10E940D4C06E510E10E940D4C07E26E
:1046A00094DF01E710E10E940D4C0FE710E10E943A
:1046B0000D4C07E28ADF0AE910E10E940D4C08EA7E
:1046C00010E10E940D4C07E280DF03EC10E10E9434
:1046D0000D4C01ED10E10E940D4C07E276DF0CEE6F
:1046E00010E10E940D4C0AEF10E10E940D4C07E210
:1046F0006CDF05E111E10E940D4C03E211E10E9423
:104700000D4C07E262DF0EE311E10E940D4C0CE458
:1047100011E10E940D4C07E258DF07E611E10E940B
:104720000D4C05E711E10E940D4C07E24EDF00E958
:1047300011E10E940D4C0EE911E10E940D4C07E2BF
:1047400044DF09EB11E10E940D4C07EC11E10E94DE
:104750000D4C07E23ADF02EE11E10E940D4C00EF32
:1047600011E10E940D4C07E230DF0BE012E10E94E4
:104770000D4C09E112E10E940D4C07E226DF04E333
:1047800012E10E940D4C02E412E10E940D4C0DE575
:1047900012E10E940D4C08E712E10E940D4C03E962
:1047A00012E10E940D4C0EEA12E10E940D4C09EC40
:1047B00012E10E940D4C04EE12E10E940D4C0FEF2D
:1047C00012E10E940D4C0AE113E10E940D4C05E339
:1047D00013E10E940D4C00E513E10E940D4C0BE625
:1047E00013E10E940D4C0091F0090A3029F40CE904
:1047F00013E10E940D4C04C006E813E10E940D4C29
:1048000002EB13E10E940D4CE3EEFCE0008111810C
:10481000012B29F40DE314E10E940D4C04C00EEEAF
:1048200013E10E940D4C0CE814E10E940D4C80E055
:1048300001C083958132F8F490E006C0A23019F4EB
:10484000182F092F66DD9395933198F7182F092FAC
:10485000F3DCA02FAA23B9F3182F092F7CDEA13097
:1048600069F7182F092F06DDF801E052F64F008195
:104870000E949E0EE8CFADDCE2E1F6E11491E9E0A2
:10488000F6E104910E94C12F00EE19E00E940A0F88
:10489000E3E1F6E11491EAE0F6E104910E94C12F10
:1048A000E3EEFCE0008111810E94A80EE4E1F6E154
:1048B0001491EBE0F6E104910E94C12FE3EEFCE0DD
:1048C0000081118120E030E040E052E060E070E0E3
:1048D0000E94044E005010422F4F3F4F0E94F90E8D
:1048E000E3E00C94934E0E94784EEF97EA97DA95A6
:1048F000BE0164527F4FECEBFDE930E08B0141E2F9
:1049000050E00E94644EA0E0BA2FBA2ECA2E24EFC7
:104910003FE0A9010E94A54D053511F40C94DE2E4F
:104920001A2F0B2F0DDC1A2F0B2F15DE9090F40988
:1049300000916A09002319F000E1A02E02C00AE0EC
:10494000A02E0E94170F902F9B31D9F50E94170FB0
:10495000902F9B3519F40E94170F902F943421F457
:10496000BB2389F0BA950FC0933411F4B3950BC0F3
:10497000913421F4AA2339F0AA9505C0923419F490
:10498000A03208F4A395FE01E452FF4F0A2F10E075
:10499000E00FF11F00810B1738F4FE01E452FF4FC6
:1049A000B0E0EA0FFB1FB081BC1521F4AB1511F488
:1049B0000C94782F1A2F0B2FC3DBCB2EBA2E0C940E
:1049C000782F903209F044C01A2F0B2F35DC0230BB
:1049D00011F00C94782F80E090E21A2F0B2F4ADC14
:1049E000F801E052F64F0081118108271927008352
:1049F0001183BB2329F58A2F02E0809F800100509C
:104A00001E4FF801E052F64F018105FD16C090E0FF
:104A1000FC01EB58F64F0081002379F014E2082FD7
:104A20000E94952F22E0829F20E0020E22E0121EBB
:104A3000F001E052F64F008311830A2F0E94473A9B
:104A40001A2F0B2F66DC01E00093E50C0C94782FF5
:104A50009D3509F04CC01A2F0B2F7DDD1A2F0B2F1F
:104A6000EBDB0130B9F41A2F0B2F04DCF801E05214
:104A7000F64F0081039500831A2F0B2FFBDBF80103
:104A8000E052F64F00810E949E0E01E00093E50C7B
:104A90000C94782F023011F00C94782F1A2F0B2FD2
:104AA000E9DBF801E052F64F008111810F7F1370AE
:104AB0000F3F23E0120711F40C94782F1A2F0B2FBD
:104AC000D9DBF801E052F64F008111810F5F1F4FD3
:104AD000008311831A2F0B2F1CDCBB2319F40A2F20
:104AE0000E94473A01E00093E50C0C94782F9B3527
:104AF00009F04AC01A2F0B2F2EDD1A2F0B2F9CDB2B
:104B00000130B9F41A2F0B2FB5DBF801E052F64F44
:104B100000810A9500831A2F0B2FACDBF801E052BD
:104B2000F64F00810E949E0E01E00093E50C0C946C
:104B3000782F023011F00C94782F1A2F0B2F9ADB5C
:104B4000F801E052F64F008111810F7F1370012BA5
:104B500011F40C94782F1A2F0B2F8CDBF801E052F4
:104B6000F64F0081118101501040008311831A2FEC
:104B70000B2FCFDBBB2319F40A2F0E94473A01E029
:104B80000093E50C0C94782F9D3709F050C01A2F34
:104B90000B2F52DB0130B9F41A2F0B2F6BDBF8010E
:104BA000E052F64F00810A0D00831A2F0B2F62DBB3
:104BB000F801E052F64F00810E949E0E01E0009342
:104BC000E50C0C94782F023011F00C94782F1A2FEA
:104BD0000B2F50DBF801E052F64F008111810F7F5F
:104BE00013702FEF33E04A2D50E0241B350B0217D2
:104BF000130710F00C94782F8A2D90E01A2F0B2FAA
:104C000039DBF801E052F64F00811181080F191FBE
:104C1000008311831A2F0B2F7CDBBB2319F40A2F7F
:104C20000E94473A01E00093E50C0C94782F9B37E3
:104C300009F04CC01A2F0B2FFFDA0130B9F41A2FEC
:104C40000B2F18DBF801E052F64F00810A190083A0
:104C50001A2F0B2F0FDBF801E052F64F00810E9454
:104C60009E0E01E00093E50C0C94782F023011F0B9
:104C70000C94782F1A2F0B2FFDDAF801E052F64F23
:104C8000008111810F7F13702A2D30E00217130766
:104C900010F40C94782F8A2D90E01A2F0B2FEADA5B
:104CA000F801E052F64F00811181081B190B0083B7
:104CB00011831A2F0B2F2DDBBB2319F40A2F0E940F
:104CC000473A01E00093E50C0C94782F67DA9033B3
:104CD00060F09B3750F4092F0E94E60D98A721E061
:104CE0008E01085D1F4F50D905C020E08E01085D80
:104CF0001F4F4AD900E00883AE01485D5F4F9E0117
:104D00002C593F4F8E010E94181E902F992311F4A9
:104D10000C94782F23E935E08E010E94F61D0023C4
:104D200051F001E000936A09A0E0BA2F1A2F0B2F6F
:104D300007DA0C94782F29E436E08E010E94F61DE4
:104D4000002359F00AE00093F0094CDCA0E0BA2FF0
:104D50001A2F0B2FF5D90C94782F23E436E08E010F
:104D60000E94F61D002359F000E00093F0093ADCA0
:104D7000A0E0BA2F1A2F0B2FE3D90C94782F2FE82D
:104D800035E08E010E94F61D002351F000E00093F3
:104D90006A09A0E0BA2F1A2F0B2FD2D90C94782FC2
:104DA00020E436E08E010E94F61D002341F01ADC5B
:104DB000A0E0BA2F1A2F0B2FC3D90C94782F2CE315
:104DC00036E08E010E94F61D002339F424EE35E012
:104DD0008E010E94F61D002391F0E1E1F6E11491AD
:104DE000E8E0F6E104910E94C12F0E943B0FFADB3C
:104DF000A0E0BA2F1A2F0B2FA3D90C94782F27E3FA
:104E000036E08E010E94F61D0023B1F0933021F0B0
:104E100002E072D90C94782FFE01FF9605A116A12D
:104E200027A130A5B02FFE01FF9601A512A523A54D
:104E300034A5A02F0C94782F22E336E08E010E9437
:104E4000F61D002339F420E336E08E010E94F61DA2
:104E5000002349F1E3EEFCE0208131812F3700E0AF
:104E60003007E8F4E3EEFCE0008111810F5F1F4F93
:104E7000008311839ADA002341F0B4DBA0E0BA2F5B
:104E80001A2F0B2F5DD90C94782FE3EEFCE00081F4
:104E9000118101501040008311830C94782F01E0A0
:104EA0002BD90C94782F29E236E08E010E94F61D52
:104EB000002339F427E236E08E010E94F61D00231C
:104EC00021F1E3EEFCE000811181012BD9F0E3EE4A
:104ED000FCE000811181015010400083118365DAEC
:104EE000002339F07FDBA0E0BA2F1A2F0B2F28D92F
:104EF000FFC7E3EEFCE0008111810F5F1F4F0083CD
:104F00001183F6C701E0F8D8F3C722E236E08E013C
:104F10000E94F61D002339F420E236E08E010E9443
:104F2000F61D002399F1923019F002E0E5D8E0C7B0
:104F3000FE01FF9605A116A127A130A5003840E08B
:104F4000140740E0240740E03407E8F4E3EEFCE017
:104F500080819181FE01FF9605A116A127A130A5B0
:104F6000E3EEFCE00083118320DA002339F03ADB22
:104F7000A0E0BA2F1A2F0B2FE3D8BAC7E3EEFCE05C
:104F800080839183B5C701E0B7D8B2C72BE136E083
:104F90008E010E94F61D0023D1F1923019F002E03B
:104FA000ABD8A6C7FE01FF9605A116A127A130A583
:104FB000003840E0140740E0240740E0340720F5C3
:104FC000E3EEFCE080819181FE01FF9605A116A130
:104FD00027A130A5E3EEFCE000831183E6D900238E
:104FE00071F0E3EEFCE080839183FCDAA0E0BA2F5D
:104FF0001A2F0B2FA5D801E00093E50C79C7E3EE3B
:10500000FCE08083918374C701E076D871C728E5FE
:1050100036E08E010E94F61D0023E1F00091E50CC0
:10502000002389F000E068D80E94170F902F99356F
:1050300019F0993709F05CC704E110E00E94670C91
:1050400008E001BD55C704E110E00E94670C08E0CC
:1050500001BD4EC726E136E08E010E94F61D0023F9
:1050600019F10AE30E94E60D20E08E01085D1F4F52
:105070000E94C41F002361F000E00DAB9E01285D7B
:105080003F4F00EE19E00E94DE1D01E00093E50CA9
:10509000E2E1F6E11491E9E0F6E1049172D700EE65
:1050A00019E00E940A0F24C723E136E08E010E9416
:1050B000F61D002309F482C09130A9F580E08F31FC
:1050C00008F016C702E0809F00E0000E02E0101E0C
:1050D000F001E052F64F018105FF23C090E0FC0192
:1050E000EB58F64F00810023E1F021E018E1082F92
:1050F0000E94724D14E2082F18D722E0829F20E010
:10510000020E22E0121EF001E052F64F00831183DE
:10511000082F0E94473A182F00E01DDA182F00E0F0
:10512000F8D88395CCCF44245524E92FF0E031976B
:105130004E165F060CF0DCC6FE01EC59FF4F042D45
:1051400010E0000F111F000F111FE00FF11F008171
:10515000118122813381802F02E0809F00E0000EC8
:1051600002E0101EF001E052F64F018105FF24C05D
:10517000082F10E0F801EB58F64F00810023E1F012
:1051800021E018E1082F0E94724D14E2082FCDD6BD
:1051900022E0829F20E0020E22E0121EF001E05287
:1051A000F64F00831183082F0E94473A182F00E022
:1051B000D2D9182F00E0ADD84394B6CF2FE036E017
:1051C0008E010E94F61D002309F460C0913021F584
:1051D00080E08F3108F08CC690E0FC01EB58F64F70
:1051E00000810023B9F020E018E1082F0E94724DE1
:1051F00002E0809F00E0000E02E0101EF001E0528D
:10520000F64F018100620183182F00E0A4D9182F06
:1052100000E07FD88395DDCF44245524E92FF0E0CA
:1052200031974E165F060CF063C6FE01EC59FF4F36
:10523000042D10E0000F111F000F111FE00FF11FD0
:105240000081118122813381802F082F10E0F80125
:10525000EB58F64F00810023B9F020E018E1082F49
:105260000E94724D02E0809F00E0000E02E0101EDE
:10527000F001E052F64F018100620183182F00E037
:105280006AD9182F00E045D84394C7CF28E936E003
:105290008E010E94F61D002309F466C0913009F0CA
:1052A00048C00091090D1091080D011709F020C6A2
:1052B00008EC10E00E94670C0E94CE20E1E1F6E1CC
:1052C0001491E8E0F6E104915CD612E206E60E9451
:1052D0004D4D0E949E0E00E20E94E60D13E206E68E
:1052E0000E944D4D0E949E0E00E20E94E60D14E2C7
:1052F00006E60E944D4D0E949E0E0CE20E94E60DB5
:1053000012E205E60E944D4D0E949E0E00E20E94B0
:10531000E60D13E205E60E944D4D0E949E0E00E24E
:105320000E94E60D14E205E60E944D4D0E949E0E7D
:10533000B8CF923009F0DCC580E007C000E090E013
:10534000FC01E954F24F008383958F31B8F3FE01DD
:10535000FF9605A116A127A130A50093E20C0EE24D
:1053600015E10E940D4CC4C523E936E08E010E9470
:10537000F61D002339F421E936E08E010E94F61D66
:105380000023C1F0FE01FF9605A116A127A130A5BB
:10539000923021F002E00E947C20AAC5083020F063
:1053A00004E00E947C20A4C50093F40901E000936E
:1053B000E50C9EC52CE836E08E010E94F61D002308
:1053C00099F1933021F002E00E947C2091C5FE010A
:1053D000FF9605A116A127A130A5802FFE01FF96FB
:1053E00001A512A523A534A5902F983010F488307C
:1053F00020F004E00E947C207BC50AE30E94E60DB9
:10540000082F0E949E0E0DE20E94E60D0EE30E9400
:10541000E60D092F0E949E0E182F092F0E941B20B7
:1054200001E00093E50C64C528E735E08E010E9499
:10543000F61D002341F423E735E08E010E94F61D9E
:10544000002309F488C0933020F002E00E947C2001
:105450004FC5913019F40091F40906C0FE01FF9682
:1054600005A116A127A130A5073020F004E00E9475
:105470007C203EC5E3EEFCE020813181232B41F40A
:105480001091F409133020F004E00E947C2030C514
:10549000923039F417E00E941B2001E00093E50CE4
:1054A00019C09130A1F40091F409073080F417E09D
:1054B0000091F4090E941B20E0EEF9E004890395B5
:1054C000048B0E94E92001E00093E50C03C004E096
:1054D0000E947C20E3EEFCE000811181012B09F0A9
:1054E00007C50091F409013029F00091F409023058
:1054F00009F0FEC400E410E020E830E040EC50E0A9
:1055000080E01EC062E0869F020E131EF001E05292
:10551000F64F2080318062E0869F000E111EF00160
:10552000E052F64F60817181261A370A62E0869F49
:10553000040E151EF001E052F64F20823182839551
:105540008F3100F30E94CE2003E00E947C2002E015
:105550000E944E20CDC425E836E08E010E94F61D43
:10556000002339F428E036E08E010E94F61D002366
:10557000E9F1923029F5FE01FF9605A116A127A1B8
:1055800030A5802F873020F004E00E947C20B0C43A
:105590000091F409801770F4E0EEF9E004890A95AF
:1055A000048B0E94E92006C0182F1395082F0E9433
:1055B0001B2083958630C0F301E00093E50C98C46E
:1055C000913009F095C40091F409013058F0E0EEF3
:1055D000F9E004890A95048B0E94E92001E0009318
:1055E000E50C86C404E00E947C2082C42EE736E0ED
:1055F0008E010E94F61D002339F42CE736E08E015F
:105600000E94F61D002389F1FE01FF9605A116A157
:1056100027A130A5802F923021F002E00E947C204B
:1056200067C4873020F004E00E947C2061C406E05B
:10563000402E06C0142D1A95042D0E941B204A945A
:105640008415C0F317E0082F0E941B200091F40975
:10565000801738F4E0EEF9E004890395048B0E948A
:10566000E92001E00093E50C43C42AEB35E08E010C
:105670000E94F61D002379F0923048F0FE01FF965B
:1056800005A116A127A130A50E94604131C401E007
:105690000E9460412DC42AE435E08E010E94F61D6F
:1056A000002341F428E435E08E010E94F61D00231A
:1056B00009F461C0FE01FF9605A116A127A130A53E
:1056C000402E923021F002E00E947C2011C407E0BD
:1056D000401620F004E00E947C200AC499E580E096
:1056E0001DC0082F10E0F801EB58F64F0081002391
:1056F000A1F0042D10E040E450E00E94C34D22E0F0
:10570000829F000E111E00E4000E00E0101EF0014A
:10571000E052F64F018106FD9EE483958F3108F338
:105720000091F409401640F0993531F400E00E94F0
:105730007C200E94170F902F993519F0993709F0A6
:10574000D7C3E6E1F6E11491EDE0F6E1049119D456
:10575000042D0E949E0E07E00E944E20142D07E0AB
:105760000E941B2080E08F3108F0C2C3082F0E94E6
:10577000473A8395F8CF27E736E08E010E94F61D61
:10578000002309F4BAC0E3EEFCE040805180913080
:1057900061F4E3EEFCE00081118120E030E0FE01E5
:1057A000FF9605A316A327A330A7EFEDFDE0208108
:1057B0003181273302E0300738F023E333E012E28F
:1057C0000EEF0E947A4D06C02FEF33E012E20EEF8B
:1057D0000E947A4D00E010E0E3EEFCE000831183CC
:1057E00080E00CC022E0829F20E0020E22E0121E28
:1057F000F001E052F64F0083118383958F3100F55D
:1058000090E0FC01EB58F64F00810023B1F318E162
:10581000082F0E944D4D013021F41EE1082F85D341
:1058200003C014E2082F81D3003020E41207D1F620
:105830000DED1DE00E940D4C082F0E949E0EDDCF45
:10584000E3EEFCE040825182FE01FF9605A116A125
:1058500027A130A5A6D407C001E00093E60C05EF10
:105860001DE00E940D4C0091E80C0023A1F0009176
:10587000090D1091080D0117B1F30E94170F0B319C
:1058800059F30D3081F702E00093E60C0CEF1DE0B8
:105890000E940D4CE8CF0EE215E10E940D4C04EF82
:1058A00011E00E94670C80E00CC022E0829F20E0A3
:1058B000020E22E0121EF001E052F64F0083118327
:1058C00083958F31B0F490E0FC01EB58F64F0081E6
:1058D0000023B1F31EE1082F28D3003020E4120783
:1058E00021F70DED1DE00E940D4C082F0E949E0E29
:1058F000E7CF07E00E944E20FBC223E736E08E018F
:105900000E94F61D002309F457C0923051F4FE01A5
:10591000FF9605A116A127A130A5003024E01207AB
:1059200020F002E00E947C20E3C21A2F0B2F0E947D
:10593000AB221A2F0B2F0E941C210130E9F4FE012B
:10594000FF9605A116A127A130A5802F1A2F0B2F96
:105950000E943A21F801E052F64F80831A2F0B2F54
:105960000E943A21F801E052F64F00810E949E0EFB
:1059700001E00093E50CBCC2023009F0B9C2FE019F
:10598000FF9605A116A127A130A5C8011A2F0B2F3C
:105990000E943A21F801E052F64F808391831A2F3A
:1059A0000B2F0E948921BB2319F40A2F0E94473A2A
:1059B00001E00093E50C9CC22CE636E08E010E94CB
:1059C000F61D002341F42AE636E08E010E94F61D02
:1059D000002309F443C1BE01605F7F4FEDEDFDE997
:1059E00030E08B0148E150E00E94644E923071F447
:1059F000FE01FF9605A116A127A130A5073040E0C2
:105A0000140740E0240740E0340720F002E00E9441
:105A10007C206EC201E00093E50CFE01FF9605A11B
:105A200016A127A130A5102F07E00E941B2040E4FB
:105A300052EE60E070E080E03AC002E0809F8001BA
:105A4000212F220F220B322F040F151F261F371F65
:105A50000F5F1F4F2F4F3F4FF801322F3BBF069074
:105A600000E00BBF302C222402E0809F8001212F18
:105A7000220F220B322F040F151F261F371FF8018C
:105A8000322F3BBF0690202D00E00BBF30E0220DEF
:105A9000331D2F7F3370FE01E55CFE4F082F10E0B1
:105AA000000F111FE00FF11F2083318383958F3189
:105AB00020F2FE01FF9605A116A127A130A540E422
:105AC00050E00E94C34D005C1F4F80E026C022E0E2
:105AD000829F000E111E21E0020E20E0121EF00136
